{
  "_format": "hh-sol-artifact-1",
  "contractName": "Counter",
  "sourceName": "contracts/Counter.sol",
  "abi": [
    {
      "inputs": [],
      "stateMutability": "nonpayable",
      "type": "constructor"
    },
    {
      "anonymous": false,
      "inputs": [
        {
          "indexed": false,
          "internalType": "uint256",
          "name": "newCount",
          "type": "uint256"
        },
        {
          "indexed": false,
          "internalType": "address",
          "name": "incrementedBy",
          "type": "address"
        }
      ],
      "name": "CounterIncremented",
      "type": "event"
    },
    {
      "inputs": [],
      "name": "count",
      "outputs": [
        {
          "internalType": "uint256",
          "name": "",
          "type": "uint256"
        }
      ],
      "stateMutability": "view",
      "type": "function"
    },
    {
      "inputs": [],
      "name": "getCount",
      "outputs": [
        {
          "internalType": "uint256",
          "name": "",
          "type": "uint256"
        }
      ],
      "stateMutability": "view",
      "type": "function"
    },
    {
      "inputs": [],
      "name": "increment",
      "outputs": [],
      "stateMutability": "nonpayable",
      "type": "function"
    }
  ],
  "bytecode": "0x608060405234801561001057600080fd5b5060008081905550610228806100276000396000f3fe608060405234801561001057600080fd5b50600436106100415760003560e01c806306661abd14610046578063a87d942c14610064578063d09de08a14610082575b600080fd5b61004e61008c565b60405161005b919061010a565b60405180910390f35b61006c610092565b604051610079919061010a565b60405180910390f35b61008a61009b565b005b60005481565b60008054905090565b60016000808282546100ad9190610154565b925050819055507f721c20121297512b72821b97f5326877ea8ecf4bb9948fea5bfcb6453074d37f600054336040516100e79291906101c9565b60405180910390a1565b6000819050919050565b610104816100f1565b82525050565b600060208201905061011f60008301846100fb565b92915050565b7f4e487b7100000000000000000000000000000000000000000000000000000000600052601160045260246000fd5b600061015f826100f1565b915061016a836100f1565b925082820190508082111561018257610181610125565b5b92915050565b600073ffffffffffffffffffffffffffffffffffffffff82169050919050565b60006101b382610188565b9050919050565b6101c3816101a8565b82525050565b60006040820190506101de60008301856100fb565b6101eb60208301846101ba565b939250505056fea2646970667358221220da5f46b4ca04107ad95a581a995861763a191a2312f2b44962cee81cb490ce2e64736f6c63430008130033",
  "linkReferences": {},
  "deployedLinkReferences": {}
}